:100000002BC045C019C643C042C041C040C03FC01C
:100010003EC03DC03CC091C63AC039C038C037C0B0
:1000200036C00000000000040302010000000102CD
:1000300004081020408004020108010101010101AF
:1000400001010202020200003900360000003B00FC
:10005000380000003A00370011241FBECFE5D2E07F
:10006000DEBFCDBF10E0A0E6B0E0EAE2F3E102C0FF
:1000700005900D92AA37B107D9F720E0AAE7B0E0C2
:1000800001C01D92A43AB207E1F779D84CC9B8CFA4
:1000900080917D00811110C08EEF9FE390939100BD
:1000A000809390008EEF9FE190938F0080938E005D
:1000B00081E080937D0008958EEF98E39093910006
:1000C000809390008CEF93E190938F0080938E004B
:1000D00010927D00089561E08AE008D761E089E030
:1000E00005D761E088E002D762E082E0FFD662E0F7
:1000F00081E0FCD662E080E0F9D661E087E0F6D6E8
:1001000081E06CD7019719F481E080937D0088E449
:1001100090E09093760080937500809198008260C3
:10012000809398008091990082608093990040E0CC
:1001300062E080E0C3D580E090E0DFD891E08111FB
:1001400001C090E09093600081E090E0D6D8809369
:10015000670082E090E0D1D88093680080916700CA
:100160009091680067E070E010D87093660060932B
:1001700065000895CF92DF92EF92FF920F931F9345
:10018000CF93DF938C017B0160E089E0EDD6C0E185
:10019000D0E0CC24C394D12C96010C2E02C0220FA7
:1001A000331F0A94E2F72E213F2161E0232B09F44B
:1001B00060E08AE0D9D661E088E0D6D660E088E0E9
:1001C000D3D6219749F7C0E1D0E0EE24E394F12C97
:1001D00097010C2E02C0220F331F0A94E2F720234E
:1001E000312361E0232B09F460E08AE0BDD661E0B1
:1001F00088E0BAD660E088E0B7D6219749F761E099
:1002000089E0DF91CF911F910F91FF90EF90DF90E8
:10021000CF90AAC68F929F92AF92BF92CF92DF9259
:10022000EF92FF920F931F93CF93DF93EC018B011B
:100230005A01812C912C6901330FEE08FF08B80197
:10024000CE018A149B0484F495DFC701B601F2D570
:1002500060E070E080E090E08DDFC701B601EAD594
:100260008FEF881A980AEBCFDF91CF911F910F91F2
:10027000FF90EF90DF90CF90BF90AF909F908F90C6
:1002800079CF0F931F93A3D560938A0070938B004F
:1002900080938C0090938D009AD500918A001091E4
:1002A0008B0020918C0030918D00DC01CB01801BF4
:1002B000910BA20BB30B0091610010916200209191
:1002C00063003091640080179107A207B30708F01C
:1002D00064C08091920090919300019709F05DC0F5
:1002E00080917C00811159C0809196009091970077
:1002F00081309105D1F480919400909195000197FF
:10030000C9F580916000811108C061E080E090E053
:10031000FCD781E08093600001C081E080937C0085
:1003200024E630E044E050E019C0892B19F58091B3
:10033000940090919500892BE9F4809160008823C6
:1003400031F060E080E090E0E0D71092600081E062
:1003500080937C0024E630E045E050E062E07CE001
:1003600080E097E057DF68EE73E080E090E01F9157
:100370000F9160C581E032D69093930080939200F4
:1003800080E02CD6909397008093960082E026D64A
:1003900090939500809394007FCF1F910F910895C3
:1003A0006F927F928F929F92AF92BF92CF92DF9285
:1003B000EF92FF921F93CF93DF931F92CDB7DEB7DB
:1003C00006D560938A0070938B0080938C00909385
:1003D0008D002AEF30E041E050E068EF71E08EE7F9
:1003E00090E018DF88EEC82E83E0D82EE12CF12CA7
:1003F00011E097E0692E712CEAD480908A009090E9
:100400008B00A0908C00B0908D00DC01CB0188198E
:100410009909AA09BB098090610090906200A090A0
:100420006300B090640088159905AA05BB0508F023
:1004300028C18091920090919300019709F021C109
:1004400080917B0081111DC12091600080919600F8
:1004500090919700222309F471C0892B89F560E0FF
:1004600070E08EE790E086DE80E0B8D5892BE1F37E
:1004700020EC36EC4DE250E060E080E0D9D5A701F9
:10048000960197D620937E0030937F0040938000A2
:1004900050938100DA01C9014A97A109B109823C50
:1004A0009540A105B10560F410937B0068EF71E001
:1004B0008EE790E05FDE6AEF70E080E090E0BAD413
:1004C0008091940090919500892B09F076C08091DD
:1004D0007B00811172C068EF71E080E090E04ADE3D
:1004E00082E07CD5892BE1F320EC36EC4DE250E044
:1004F00060E082E09DD5A70196015BD620937E0047
:1005000030937F004093800050938100DA01C9014D
:100510004A97A109B109823C9540A105B10508F0AF
:100520004CC010937B0068EF71E08EE790E022DE14
:100530006AEF70E080E090E07DD43FC0019769F5FC
:1005400060E070E08EE790E015DE20EC36EC4DE2E6
:1005500050E060E080E06CD5A70196012AD6209398
:100560007E0030937F004093800050938100DA0139
:10057000C9014A97A109B109823C9540A105B1057D
:1005800060F410937B0068EF71E08EE790E0F2DD9D
:100590006AEF70E080E090E04DD4809194009091FB
:1005A0009500019751F480917B00811106C068EF9E
:1005B00071E080E090E0DEDD97CF80917E00909149
:1005C0007F00A0918000B091810040916700509120
:1005D000680060E070E04C015D01841A950AA60A8B
:1005E000B70A2AE182169104A104B10448F4481B19
:1005F000590B6A0B7B0B4A3151056105710570F18E
:1006000020917B00222351F1909368008093670032
:10061000682F81E090E0698370D66981681719F0CE
:1006200081E090E072D66091680082E090E069839A
:1006300064D66981681719F082E090E066D68091EF
:10064000670090916800B301A0D570936600609335
:1006500065006AEF70E080E090E0ECD381E0BED40A
:10066000909393008093920080E0B8D49093970089
:100670008093960082E0B2D490939500809394008A
:10068000BBCE0F90DF91CF911F91FF90EF90DF9045
:10069000CF90BF90AF909F908F907F906F90089574
:1006A00060918E0070918F008091900090919100E8
:1006B0008E5791095FDD609165007091660080E062
:1006C00090E0B8D360918E0070918F00809190007F
:1006D00090919100CE974EDD60916500709166001B
:1006E00080E090E0A7D360918E0070918F008091A0
:1006F0009000909191004E973DDD60916500709162
:10070000660080E090E096D360918E0070918F003B
:1007100080919000909191000E972CDD6091650082
:100720007091660080E090E085D360918E007091BA
:100730008F00809190009091910006971BDD609151
:1007400065007091660080E090E074D360918E0047
:1007500070918F00809190009091910002970ADD36
:10076000609165007091660080E090E063D36091D5
:100770008E0070918F008091900090919100FADC32
:10078000609165007091660080E090E053C36091D5
:100790008E0070918F008091900090919100685F21
:1007A0007140E8DC609165007091660080E090E047
:1007B00041D360918E0070918F0080919000909154
:1007C0009100605F7140D6DC6091650070916600B9
:1007D00080E090E02FD360918E0070918F00809127
:1007E000900090919100605E7140C4DC6091650062
:1007F0007091660080E090E01DD360918E00709152
:100800008F008091900090919100605C7140B2DC0B
:10081000609165007091660080E090E00BD360917C
:100820008E0070918F00809190009091910060589F
:100830007140A0DC609165007091660080E090E0FE
:10084000F9D260918E0070918F008091900090910C
:1008500091007A958FDC609165007091660080E070
:1008600090E0E8D260918E0070918F0080919000AE
:10087000909191007FDC609165007091660080E04E
:1008800090E0D8C2CF92DF92EF92FF920F931F9326
:10089000CF93C1E020919600309197008091940011
:1008A000909195002817390709F076C090D260938F
:1008B0008600709387008093880090938900209130
:1008C0007A00C0908200D0908300E0908400F09085
:1008D00085000091670010916800DC01CB018C1944
:1008E0009D09AE09BF09211113C020E030E0801737
:1008F0009107A207B30758F160918E0070918F00A5
:10090000809190009091910035DCC0937A0016C0E0
:1009100020E030E080179107A207B307C0F0609194
:100920008E0070918F0080919000909191006C5F8B
:1009300073418E5F98431EDC10927A0048D2609318
:10094000820070938300809384009093850080914F
:10095000920090919300892B61F480919600909180
:100960009700892B31F48091940090919500892B08
:1009700099F081E033D3909393008093920080E0CC
:100980002DD3909397008093960082E027D3909385
:100990009500809394007ECFCF911F910F91FF908F
:1009A000EF90DF90CF9008950F931F9381E016D3BF
:1009B000909393008093920080E010D390939700DF
:1009C0008093960082E00AD39093950080939400E0
:1009D0008091920090919300019749F48EEF9FE3EC
:1009E00090939100809390008EEF9FE108C08EEF6E
:1009F00098E390939100809390008CEF93E1909313
:100A00008F0080938E00E3D1643C7940810591058D
:100A100008F07DC08091920090919300019709F0B9
:100A200076C0D5D160938A0070938B0080938C0040
:100A300090938D0060E071E082E090E09BDB68EED7
:100A400073E080E090E0F6D1C2D100918A0010916D
:100A50008B0020918C0030918D00DC01CB01801B3C
:100A6000910BA20BB30B00916100109162002091D9
:100A700063003091640080179107A207B30708F064
:100A800046C08091920090919300019709F03FC079
:100A900080917C00811101C0F4DB80917B00811189
:100AA00001C07EDC80917C00882371F280917B0004
:100AB000882351F260E070E08EEF9FE35BDB6AEF2A
:100AC00070E080E090E0B6D16EEF7FE180E090E0F2
:100AD00051DB6AEF70E080E090E0ACD16EEF7FE137
:100AE0008EEF9FE347DB6AEF70E080E090E0A2D1F9
:100AF00060E070E080E090E03DDB6AEF70E080E075
:100B000090E098D16CEF73E18EEF98E333DB2091A6
:100B1000600080919600909197002223F1F120913E
:100B200092003091930021303105B9F4892B39F4CA
:100B30008091940090919500019709F4B1DD809126
:100B40009600909197000197F1F580919400909113
:100B50009500892BC1F51BDE36C00197B9F4809151
:100B60009400909195008130910569F48EEF9FE398
:100B700090939100809390008EEF9FE190938F006F
:100B800080938E0003C0892B09F48ADD8091960042
:100B900090919700892B89F016C0019739F48091C4
:100BA000940090919500019709F46CDE8091960075
:100BB00090919700019709F473DD809194009091D2
:100BC0009500019741F260918E0070918F008091A5
:100BD000900090919100CEDA64E170E080E090E0C6
:100BE0001F910F9127C10895E0917700F09178004F
:100BF0000994E0917500F09176000994E0917300FA
:100C0000F09174000994E0917100F09172000994E0
:100C1000E0916F00F09170000994E0916D00F09107
:100C20006E000994E0916B00F0916C000994E091E2
:100C30006900F0916A0009941F920F920FB60F920B
:100C400011242F933F934F935F936F937F938F93D1
:100C50009F93AF93BF93CF93EF93FF9329B380916B
:100C60009A00C0919900C823909198009223C92BB3
:100C70008227C82320939A00C0FDB6DFC1FDB9DFEB
:100C8000C2FDBCDFC3FDBFDFC4FDC2DFC5FDC5DFE4
:100C9000C6FDC8DFC7FDCBDFFF91EF91CF91BF91BC
:100CA000AF919F918F917F916F915F914F913F9104
:100CB0002F910F900FBE0F901F901895882349F029
:100CC000813071F496B3E42FF0E0E656FF4F908345
:100CD00010C099B3E42FF0E0E656FF4F908305C0B3
:100CE000882319F0813041F404C092B3692B62BBB0
:100CF00003C090B5692B60BD4BB78C5F21E030E03D
:100D0000B90102C0660F771F8A95E2F7CB01842BE9
:100D10008BBF08958EB5887F8EBD8FB581608FBDE6
:100D20008FB58D7F8FBD8EB5877F8EBD8EB58F7E43
:100D30008EBD8EB582608EBD08951F920F920FB644
:100D40000F9211242F933F938F939F93AF93BF9351
:100D500080919C0090919D00A0919E00B0919F0079
:100D600030919B0026E0230F2D3730F029E8230F28
:100D70000396A11DB11D03C00296A11DB11D2093B4
:100D80009B0080939C0090939D00A0939E00B09345
:100D90009F008091A0009091A100A091A200B0912D
:100DA000A3000196A11DB11D8093A0009093A10006
:100DB000A093A200B093A300BF91AF919F918F9198
:100DC0003F912F910F900FBE0F901F9018952FB746
:100DD000F89460919C0070919D0080919E0090918C
:100DE0009F002FBF08953FB7F8948091A000909185
:100DF000A100A091A200B091A30022B708B600FE06
:100E000005C02F3F19F00196A11DB11D3FBFBA2F9C
:100E1000A92F982F8827820F911DA11DB11DBC01FC
:100E2000CD0143E0660F771F881F991F4A95D1F7C0
:100E300008950895CF92DF92EF92FF92CF93DF93C0
:100E40006B017C01D0DFEB01C114D104E104F1049A
:100E500079F0EFDFC8DF6C1B7D0B683E7340A0F3B9
:100E600081E0C81AD108E108F108C851DC4FF2CF7F
:100E7000DF91CF91FF90EF90DF90CF90089580B7F2
:100E8000826080BF80B7816080BF83B7887F8260C7
:100E900083BF789489B7816089BF3CDF86B188774A
:100EA000836886B9379A0895813031F480B78F7797
:100EB00080BF80B78F7B07C0823039F480B78F7DC9
:100EC00080BF80B78F7E80BF0895833031F48FB5A7
:100ED0008F778FBD8FB58F7B07C0843031F48FB58E
:100EE0008F7D8FBD8FB58F7E8FBD0895CF93DF939C
:100EF00087FD8F7790E0FC01E25DFF4F2491FC01BC
:100F0000E65CFF4F8491882361F190E0880F991F80
:100F1000FC01EE5AFF4FC591D491FC01E45BFF4FF9
:100F2000A591B491611109C09FB7F894888120956B
:100F300082238883EC912E230BC0623061F49FB72B
:100F4000F8943881822F809583238883EC912E2B0F
:100F50002C939FBF06C08FB7F894E8812E2B28836F
:100F60008FBFDF91CF9108950F931F93CF93DF939E
:100F70001F92CDB7DEB787FD8F77282F30E0F901BC
:100F8000EE5DFF4F8491F901E25DFF4F1491F9018D
:100F9000E65CFF4F04910023D9F0882319F06983A0
:100FA00083DF6981E02FF0E0EE0FFF1FE45BFF4F6E
:100FB000A591B4918FB7611106C0F8949C91E12F6F
:100FC000E095E92303C0F894EC91E12BEC938FBFFB
:100FD0000F90DF91CF911F910F910895CF93DF93E1
:100FE00087FD8F77282F30E0F901EE5DFF4F849168
:100FF000F901E25DFF4FD491F901E65CFF4FC49126
:10100000CC2389F0811150DFEC2FF0E0EE0FFF1FB1
:10101000EA5BFF4FA591B491EC91ED2381E090E064
:1010200021F480E002C080E090E0DF91CF9108954C
:101030004F925F926F927F928F929F92AF92BF92E8
:10104000CF92DF92EF92FF920F931F93CF93DF9394
:1010500090E0FC01E25DFF4FE490FC01E65CFF4F95
:10106000F490662311F0DE2C01C0D12CCA01B90125
:1010700028EE33E040E050E0C0D0B901CA0120E8DA
:101080003EE340E050E095D049015A018F2D90E0B9
:10109000880F991FEC01CA5BDF4F240135018FEFE8
:1010A000481A580A680A780A40E050E0BA01FE017E
:1010B000A591B4912C912E212D1117C04F5F5F4F38
:1010C0006F4F7F4F441555056605770581F741C081
:1010D0008A019B010F5F1F4F2F4F3F4F4815590546
:1010E0006A057B05B1F1B901A801FE01A591B49192
:1010F0002C912E212D11ECCF95018401041B150B91
:10110000260B370B60E070E0CB01FE01A591B49196
:101110004C914E214D110AC0601771078207930749
:10112000C1F06F5F7F4F8F4F9F4FEFCF28E032E5C9
:1011300040E050E062D049015A01C501B401605855
:10114000714C8F4F9F4F28EE33E040E050E031D09C
:1011500003C020E030E0A901CA01B901DF91CF91BD
:101160001F910F91FF90EF90DF90CF90BF90AF90C5
:101170009F908F907F906F905F904F90089581B770
:1011800081BF7DDEA8D710DCFECFAA1BBB1B51E1BF
:1011900007C0AA1FBB1FA617B70710F0A61BB70BE7
:1011A000881F991F5A95A9F780959095BC01CD018C
:1011B0000895A1E21A2EAA1BBB1BFD010DC0AA1F98
:1011C000BB1FEE1FFF1FA217B307E407F50720F0B0
:1011D000A21BB30BE40BF50B661F771F881F991F2B
:1011E0001A9469F760957095809590959B01AC0174
:1011F000BD01CF01089568940013E894A0E0B0E029
:10120000E3E0F9E01DC0EFEFE7F959016A015E2361
:10121000550FEE08FE2C87019B01AC019E23990F10
:10122000660B762FCB013BD0CDB7DEB7EAE024C00A
:101230002F923F924F925F926F927F928F929F92E6
:10124000AF92BF92CF92DF92EF92FF920F931F93D4
:10125000CF93DF93CDB7DEB7CA1BDB0B0FB6F89485
:10126000DEBF0FBECDBF09942A88398848885F84C5
:101270006E847D848C849B84AA84B984C884DF8036
:10128000EE80FD800C811B81AA81B981CE0FD11D1A
:101290000FB6F894DEBF0FBECDBFED010895DF930A
:1012A000CF939F92A0E49A2E0024D001E001F00198
:1012B00016950795F794E794D794C794B794A79495
:1012C00048F41068A20FB31FC41FD51FE61FF71FF5
:1012D000081E191E220F331F441F551F661F771F3C
:1012E000881F991F9A9421F79D01AE01BF01C0018B
:1012F00011249F90CF91DF910895E199FECF9FBB7C
:101300008EBBE09A99278DB30895262FE199FECFE1
:101310001CBA9FBB8EBB2DBB0FB6F894E29AE19A24
:0A1320000FBE01960895F894FFCF68
:10132A0001102700004B000D02F305F305F305F346
:0A133A0005F305F305F305F30500C4
:00000001FF
